:020000040800F2
:100000000000022079550008C9550008C9550008AC
:10001000C9550008C9550008C9550008000000006E
:10002000000000000000000000000000C9550008AA
:10003000C955000800000000C9550008C95500084E
:10004000C9550008C9550008C9550008C955000818
:1000500000000000C9550008C9550008C95500082E
:10006000C9550008C9550008C9550008C9550008F8
:10007000C9550008C9550008C9550008C9550008E8
:10008000C9550008C9550008C9550008C9550008D8
:10009000C9550008C9550008C9550008C9550008C8
:1000A000C9550008C9550008C9550008C9550008B8
:1000B000C9550008F12F0008C5400008C9550008BF
:1000C000C9550008C9550008C9550008C955000898
:1000D000C955000841370008C9550008C95500082E
:1000E000C9550008C9550008C9550008C955000878
:1000F000C9550008C9550008C9550008C955000868
:10010000C9550008C9550008B92F0008C95500088D
:10011000C9550008C9550008C9550008C955000847
:100120007D2F0008C9550008C9550008C9550008A9
:10013000C9550008C9550008C9550008C955000827
:10014000C9550008C9550008C9550008C955000817
:10015000C9550008C9550008C9550008C955000807
:10016000C9550008C9550008C9550008C9550008F7
:10017000C9550008C9550008C9550008C9550008E7
:10018000C9550008C9550008000000000000000023
:10019000000000000000000000000000000000005F
:0801A000C9550008C95500080B
:1001C00010B5054C237833B9044B13B10448AFF391
:1001D00000800123237010BDD00900200000000022
:1001E00050E700080C4B43B10C480D4910B5AFF374
:1001F00000800C48036823B910BD0A48036833B96E
:100200007047094B002BF7D0BDE810401847064B4C
:10021000002BF5D0184700BF0000000050E7000891
:10022000D4090020D00900200000000081F0004126
:1002300002E000BF83F0004330B54FEA41044FEACB
:10024000430594EA050F08BF90EA020F1FBF54EA66
:10025000000C55EA020C7FEA645C7FEA655C00F002
:10026000E2804FEA5454D4EB5555B8BF6D420CDDD3
:100270002C4480EA020281EA030382EA000083EA56
:10028000010180EA020281EA0303362D88BF30BDF6
:1002900011F0004F4FEA01314FF4801C4CEA11314C
:1002A00002D0404261EB410113F0004F4FEA0333AB
:1002B0004CEA133302D0524263EB430394EA050F36
:1002C00000F0A780A4F10104D5F1200E0DDB02FAA5
:1002D0000EFC22FA05F2801841F1000103FA0EF239
:1002E000801843FA05F359410EE0A5F120050EF1FF
:1002F000200E012A03FA0EFC28BF4CF0020C43FA30
:1003000005F3C01851EBE37101F0004507D54FF03C
:10031000000EDCF1000C7EEB00006EEB0101B1F58C
:10032000801F1BD3B1F5001F0CD349085FEA3000D2
:100330004FEA3C0C04F101044FEA445212F5800FDD
:1003400080F09A80BCF1004F08BF5FEA500C50F17A
:10035000000041EB045141EA050130BD5FEA4C0C5D
:10036000404141EB010111F4801FA4F10104E9D1E6
:1003700091F0000F04BF01460020B1FA81F308BFDD
:100380002033A3F10B03B3F120020CDA0C3208DDA9
:1003900002F1140CC2F10C0201FA0CF021FA02F184
:1003A0000CE002F11402D8BFC2F1200C01FA02F1F4
:1003B00020FA0CFCDCBF41EA0C019040E41AA2BF19
:1003C00001EB0451294330BD6FEA04041F3C1CDAE1
:1003D0000C340EDC04F11404C4F1200220FA04F001
:1003E00001FA02F340EA030021FA04F345EA0301AB
:1003F00030BDC4F10C04C4F1200220FA02F001FA6D
:1004000004F340EA0300294630BD21FA04F02946EE
:1004100030BD94F0000F83F4801306BF81F4801187
:100420000134013D4EE77FEA645C18BF7FEA655CFA
:1004300029D094EA050F08BF90EA020F05D054EACC
:10044000000C04BF1946104630BD91EA030F1EBFD1
:100450000021002030BD5FEA545C05D140004941D5
:1004600028BF41F0004130BD14F580043CBF01F5C8
:10047000801130BD01F0004545F0FE4141F47001AE
:100480004FF0000030BD7FEA645C1ABF1946104689
:100490007FEA655C1CBF0B46024650EA013406BF8A
:1004A00052EA033591EA030F41F4002130BD00BF49
:1004B00090F0000F04BF0021704730B54FF4806406
:1004C00004F132044FF000054FF0000150E700BF87
:1004D00090F0000F04BF0021704730B54FF48064E6
:1004E00004F1320410F0004548BF40424FF00001D3
:1004F0003EE700BF42004FEAE2014FEA31014FEA16
:1005000002701FBF12F07F4393F07F4F81F0605164
:10051000704792F0000F14BF93F07F4F704730B5D3
:100520004FF4607401F0004521F0004120E700BF66
:1005300050EA010208BF704730B54FF000050AE0ED
:1005400050EA010208BF704730B511F0004502D5EE
:10055000404261EB41014FF4806404F132045FEAF0
:10056000915C3FF4DCAE4FF003025FEADC0C18BF95
:1005700003325FEADC0C18BF033202EBDC02C2F18B
:10058000200300FA03FC20FA02F001FA03FE40EA1D
:100590000E0021FA02F11444C1E600BF70B54FF01D
:1005A000FF0C4CF4E06C1CEA11541DBF1CEA1355FF
:1005B00094EA0C0F95EA0C0F00F0DEF82C4481EA67
:1005C000030621EA4C5123EA4C5350EA013518BF87
:1005D00052EA033541F4801143F4801338D0A0FB74
:1005E00002CE4FF00005E1FB02E506F00042E0FB21
:1005F00003E54FF00006E1FB03569CF0000F18BF27
:100600004EF0010EA4F1FF04B6F5007F64F54074CE
:1006100004D25FEA4E0E6D4146EB060642EAC62161
:1006200041EA55514FEAC52040EA5E504FEACE2ECE
:10063000B4F1FD0C88BFBCF5E06F1ED8BEF1004FD1
:1006400008BF5FEA500E50F1000041EB045170BD4D
:1006500006F0004646EA010140EA020081EA030191
:10066000B4EB5C04C2BFD4EB0C0541EA045170BD8D
:1006700041F480114FF0000E013C00F3AB8014F107
:10068000360FDEBF002001F0004170BDC4F1000450
:10069000203C35DA0C341BDC04F11404C4F12005D1
:1006A00000FA05F320FA04F001FA05F240EA02002C
:1006B00001F0004221F0004110EBD37021FA04F662
:1006C00042EB06015EEA430E08BF20EAD37070BD1C
:1006D000C4F10C04C4F1200500FA04F320FA05F07B
:1006E00001FA04F240EA020001F0004110EBD3707D
:1006F00041F100015EEA430E08BF20EAD37070BDED
:10070000C4F1200500FA05F24EEA020E20FA04F3C5
:1007100001FA05F243EA020321FA04F001F0004174
:1007200021FA04F220EA020000EBD3705EEA430EE5
:1007300008BF20EAD37070BD94F0000F0FD101F014
:100740000046400041EB010111F4801F08BF013C4D
:10075000F7D041EA060195F0000F18BF704703F08B
:100760000046520043EB030313F4801F08BF013D12
:10077000F7D043EA0603704794EA0C0F0CEA1355CE
:1007800018BF95EA0C0F0CD050EA410618BF52EA88
:100790004306D1D181EA030101F000414FF000008E
:1007A00070BD50EA410606BF1046194652EA43069C
:1007B00019D094EA0C0F02D150EA013613D195EA10
:1007C0000C0F05D152EA03361CBF104619460AD158
:1007D00081EA030101F0004141F0FE4141F4700162
:1007E0004FF0000070BD41F0FE4141F4780170BD52
:1007F00070B54FF0FF0C4CF4E06C1CEA11541DBFB7
:100800001CEA135594EA0C0F95EA0C0F00F0A7F8B8
:10081000A4EB050481EA030E52EA03354FEA0131E5
:1008200000F088804FEA03334FF0805545EA1313F8
:1008300043EA12634FEA022245EA111545EA1065C0
:100840004FEA00260EF000419D4208BF964244F157
:10085000FD0404F5407402D25B084FEA3202B61A76
:1008600065EB03055B084FEA32024FF480104FF44A
:10087000002CB6EB020E75EB030E22BFB61A7546BE
:1008800040EA0C005B084FEA3202B6EB020E75EB51
:10089000030E22BFB61A754640EA5C005B084FEAB9
:1008A0003202B6EB020E75EB030E22BFB61A754686
:1008B00040EA9C005B084FEA3202B6EB020E75EB91
:1008C000030E22BFB61A754640EADC0055EA060E52
:1008D00018D04FEA051545EA16754FEA06164FEA95
:1008E000C30343EA52734FEAC2025FEA1C1CC0D141
:1008F00011F4801F0BD141EA00014FF000004FF0CE
:10090000004CB6E711F4801F04BF01430020B4F18E
:10091000FD0C88BFBCF5E06F3FF6AFAEB5EB030C46
:1009200004BFB6EB020C5FEA500C50F1000041EB43
:10093000045170BD0EF0004E4EEA113114EB5C0410
:10094000C2BFD4EB0C0541EA045170BD41F48011E3
:100950004FF0000E013C90E645EA060E8DE60CEAEB
:10096000135594EA0C0F08BF95EA0C0F3FF43BAF08
:1009700094EA0C0F0AD150EA01347FF434AF95EABF
:100980000C0F7FF425AF104619462CE795EA0C0FA3
:1009900006D152EA03353FF4FDAE1046194622E770
:1009A00050EA410618BF52EA43067FF4C5AE50EA4A
:1009B00041047FF40DAF52EA43057FF4EBAE12E73A
:1009C0004FF0FF3C06E000BF4FF0010C02E000BF1B
:1009D0004FF0010C4DF804CD4FEA410C7FEA6C5CFE
:1009E0004FEA430C18BF7FEA6C5C1BD001B050EAA1
:1009F000410C0CBF52EA430C91EA030F02BF90EA8C
:100A0000020F0020704710F1000F91EA030F58BF4A
:100A1000994208BF90422CBFD8176FEAE37040F0AC
:100A2000010070474FEA410C7FEA6C5C02D150EA4A
:100A3000013C07D14FEA430C7FEA6C5CD6D152EA05
:100A4000033CD3D05DF8040B704700BF84461046CA
:100A500062468C461946634600E000BF01B5FFF7C9
:100A6000B7FF002848BF10F1000F01BD4DF808ED99
:100A7000FFF7F4FF0CBF012000205DF808FB00BF6A
:100A80004DF808EDFFF7EAFF34BF012000205DF8C4
:100A900008FB00BF4DF808EDFFF7E0FF94BF012011
:100AA00000205DF808FB00BF4DF808EDFFF7CEFF12
:100AB00094BF012000205DF808FB00BF4DF808ED51
:100AC000FFF7C4FF34BF012000205DF808FB00BF22
:100AD0004A0011D212F5001211D20DD56FF47873BD
:100AE000B3EB62520ED44FEAC12343F0004343EA12
:100AF000505323FA02F070474FF00000704750EA5D
:100B0000013002D14FF0FF3070474FF000007047C6
:100B10004FEA4102B2F1E04324BFB3F5001CDCF11F
:100B2000FE5C0DD901F0004C4FEAC0024CEA507057
:100B3000B2F1004F40EB830008BF20F00100704786
:100B400011F0804F21D113F13872BCBF01F0004089
:100B5000704741F480114FEA5252C2F11802C2F1BB
:100B6000200C10FA0CF320FA02F018BF40F001003C
:100B70004FEAC1234FEAD32303FA0CFC40EA0C00EE
:100B800023FA02F34FEA4303CCE77FEA625307D12B
:100B900050EA01331EBF4FF0FE4040F44000704762
:100BA00001F0004040F0FE4040F40000704700BFFC
:100BB0000000000000000000000000000000000035
:100BC000A2EB0300704700BF02780B78012A28BF10
:100BD0009A42F5D16DE9044540EA0104CDE9026786
:100BE0006FF0000C4FEA447212B380EA010414F073
:100BF000070F6AD100F0070420F0070004F0030596
:100C000021F007014FEAC505F0E8042314F0040FB2
:100C1000F1E804670CFA05F462EA040266EA0406E5
:100C20000AD063EA0403624667EA0407664603E003
:100C3000F0E80423F1E8046782FA4CF582EA06043E
:100C4000A4FA8CF46CBB83FA4CF583EA0705A5FA89
:100C50008CF595B950E9022351E9026782FA4CF507
:100C600082EA0604A4FA8CF483FA4CF583EA0705B9
:100C7000A5FA8CF52543DBD09CB92DBAB5FA85F4DD
:100C800024F0070427FA04F1DDE9026723FA04F3EC
:100C900003F0FF0001F0FF01FDE80445A0EB0100B7
:100CA000704724BAB4FA84F424F0070426FA04F155
:100CB000DDE9026722FA04F202F0FF0001F0FF0111
:100CC000FDE80445A0EB0100704714F0030F3CD190
:100CD00010F0030428D150F8082B51F8083B82FA91
:100CE0004CF582EA0305A5FA8CF55DB950F8042CA1
:100CF00051F8043C82FA4CF582EA0305A5FA8CF51A
:100D0000002DE8D02DBAB5FA85F424F0070423FAB3
:100D100004F122FA04F202F0FF0001F0FF01FDE805
:100D20000445A0EB010070474FEAC40420F0030023
:100D300050F8082B21F0030151F8083B0CFA04F499
:100D400062EA040263EA0403C9E710F003041AD05C
:100D5000A1EB040120F00300E40750F8042B06D0B7
:100D60000FD28B785FFAA2F4E41A06D12BB1CB78BC
:100D70005FFAB2F4E41A00D11BB920465DF8104BBB
:100D8000704701F1040150F8042BCC0721F0030156
:100D900051F8043B48D824D222F07F4482FA4CF523
:100DA00094EA1325A5FA8CF50AD165B951F8043BEC
:100DB00084EA0204B4EB036F0ED150F8042BEBE786
:100DC0004FEA132355E035F07F454DD10878FDE813
:100DD0000445C0F1000070474FEA126203F0FF03C0
:100DE00047E002EA1C4482FA4CF594EA1345A5FA5E
:100DF0008CF50AD165B951F8043B84EA0204B4EBDE
:100E0000034F0CD150F8042BEBE74FEA134330E0CB
:100E100015EA1C4528D10B884FEA124229E04FEA17
:100E2000124203EA1C4324E002F0FF0482FA4CF56C
:100E300094EA1365A5FA8CF50AD165B951F8043B1B
:100E400084EA0204B4EB032F09D150F8042BEBE73A
:100E50004FEA13630DE015F0FF0F05D10B684FEA61
:100E6000122223F07F4304E04FF00000FDE8044528
:100E7000704712BA1BBA82FA4CF482EA0304A4FA4D
:100E80008CF5B5FA85F402FA04F203FA04F34FEA9A
:100E90001260FDE80445A0EB1360704700000000FD
:100EA0000000000000000000000000000000000042
:100EB0000000000000000000000000000000000032
:100EC00090F800F06DE9024520F007016FF0000C8A
:100ED00010F0070491F820F040F049804FF0000432
:100EE0006FF00700D1E9002391F840F000F108000D
:100EF00082FA4CF2A4FA8CF283FA4CF3A2FA8CF345
:100F00004BBBD1E9022382FA4CF200F10800A4FAAB
:100F10008CF283FA4CF3A2FA8CF3E3B9D1E90423FF
:100F200082FA4CF200F10800A4FA8CF283FA4CF336
:100F3000A2FA8CF37BB9D1E9062301F1200182FAF0
:100F40004CF200F10800A4FA8CF283FA4CF3A2FAF6
:100F50008CF3002BC6D0002A04BF04301A4612BA04
:100F6000B2FA82F2FDE8024500EBD2007047D1E907
:100F7000002304F00305C4F100004FEAC50514F096
:100F8000040F91F840F00CFA05F562EA05021CBF67
:100F900063EA050362464FF00004A9E70000000081
:100FA00001F0FF01102A2BDB10F0070F08D010F81A
:100FB000013B013A8B422DD010F0070F42B3F6D11E
:100FC000F0B441EA012141EA014122F007047FF037
:100FD00000070023F0E80256083C85EA010586EA8E
:100FE000010685FA47F5A3FA87F586FA47F6A5FACA
:100FF00087F68EB9EED1F0BC01F0FF0102F00702D6
:1010000032B110F8013B013A83EA010313B1F8D180
:101010000020704701387047002D06BF3546033861
:10102000073815F0010F07D1013015F4807F02BF9A
:10103000013015F4C03F0130F0BC0138704700BFEB
:10104000844641EA000313F003036DD1403A41D3D3
:1010500051F8043B40F8043B51F8043B40F8043B92
:1010600051F8043B40F8043B51F8043B40F8043B82
:1010700051F8043B40F8043B51F8043B40F8043B72
:1010800051F8043B40F8043B51F8043B40F8043B62
:1010900051F8043B40F8043B51F8043B40F8043B52
:1010A00051F8043B40F8043B51F8043B40F8043B42
:1010B00051F8043B40F8043B51F8043B40F8043B32
:1010C00051F8043B40F8043B51F8043B40F8043B22
:1010D000403ABDD2303211D351F8043B40F8043BC2
:1010E00051F8043B40F8043B51F8043B40F8043B02
:1010F00051F8043B40F8043B103AEDD20C3205D3D2
:1011000051F8043B40F8043B043AF9D2043208D0C9
:10111000D2071CBF11F8013B00F8013B01D30B883B
:1011200003806046704700BF082A13D38B078DD019
:1011300010F003038AD0C3F10403D21ADB071CBFEB
:1011400011F8013B00F8013B80D331F8023B20F855
:10115000023B7BE7043AD9D3013A11F8013B00F88E
:10116000013BF9D20B7803704B7843708B78837016
:10117000604670474FEA410C7FEA6C5C02D150EA4E
:10118000013C0AD14FEA430C7FEA6C5C02D152EA7F
:10119000033C02D14FF0000070474FF00100704750
:1011A0004FEA410212F5001215D211D56FF478738F
:1011B000B3EB625212D94FEAC12343F0004343EA32
:1011C000505311F0004F23FA02F018BF404270470D
:1011D0004FF00000704750EA013005D111F0004097
:1011E00008BF6FF0004070474FF00000704700BF2D
:1011F00053B94AB9002908BF00281CBF4FF0FF317E
:101200004FF0FF3000F07AB9ADF1080C6DE904CE73
:1012100000F006F8DDF804E0DDE9022304B07047D1
:101220002DE9F0478C460D460446089E002B51D10F
:101230008A4217466DD9B2FA82FEBEF1000F0BD07A
:10124000CEF1200C01FA0EF520FA0CFC02FA0EF792
:101250004CEA050C00FA0EF44FEA174A250CBCFBC9
:10126000FAF81FFA87F90AFB18CC45EA0C4508FB87
:1012700009F3AB420AD9ED1908F1FF3280F023815E
:10128000AB4240F22081A8F102083D44ED1AA4B21D
:10129000B5FBFAF00AFB105544EA054400FB09F9D6
:1012A000A14509D9E41900F1FF3380F00A81A14575
:1012B00040F2078102383C44A4EB090440EA0840AC
:1012C0000021002E61D024FA0EF4002334607360F4
:1012D000BDE8F0878B4207D9002E54D0002186E864
:1012E00021000846BDE8F087B3FA83F1002940F0F9
:1012F0008E80AB4202D3824200F2FA80841A65EB00
:1013000003050120AC46002E3FD086E81010BDE852
:10131000F08712B90127B7FBF2F7B7FA87FEBEF1E3
:10132000000F34D1EB1B3A0C1FFA87FC0121B3FBF1
:10133000F2F8250C02FB183345EA03450CFB08F3D1
:10134000AB4207D9ED1908F1FF3002D2AB4200F2EF
:10135000D1808046ED1AA3B2B5FBF2F002FB105526
:1013600043EA05440CFB00FCA44507D9E41900F14D
:10137000FF3302D2A44500F2B8801846A4EB0C0457
:1013800040EA08409DE731463046BDE8F087CEF19F
:10139000200405FA0EF307FA0EF720FA04F83A0CC7
:1013A00025FA04F448EA0308B4FBF2F14FEA1845C1
:1013B00002FB11441FFA87FC45EA044501FB0CF3CC
:1013C000AB4200FA0EF409D9ED1901F1FF3080F0BB
:1013D0008A80AB4240F2878002393D44EB1A1FFA03
:1013E00088F5B3FBF2F002FB103345EA034500FB3E
:1013F0000CF3AB4207D9ED1900F1FF386FD2AB42C5
:101400006DD902383D44EB1A40EA01418FE7C1F142
:10141000200722FA07F88B4005FA01F448EA030393
:1014200020FA07FE4FEA134CFD404EEA040EB5FBCE
:10143000FCF94FEA1E440CFB19551FFA83F844EAE5
:10144000054509FB08F4AC4202FA01F200FA01FA80
:1014500008D9ED1809F1FF3043D2AC4241D9A9F1C6
:1014600002091D442D1B1FFA8EFEB5FBFCF00CFB80
:1014700010554EEA054400FB08F8A04507D9E418CA
:1014800000F1FF3529D2A04527D902381C4440EA93
:101490000940A4EB0804A0FB02894C45C6464D4612
:1014A00015D312D056B1BAEB0E0364EB050404FA5F
:1014B00007F7CB401F43CC40376074600021BDE884
:1014C000F0871846F8E69046E0E6C245EAD2B8EB67
:1014D000020E69EB03050138E4E72846D7E74046EA
:1014E00091E78146BEE7014678E702383C4445E78C
:1014F000084608E7A8F102083D442BE7704700BF03
:1015000080B483B000AF7860064A7B6843F0BF6365
:1015100043F40033D36000BF0C37BD465DF8047B55
:10152000704700BF00ED00E080B485B000AF786088
:101530000023FB730023BB730F237B737B68DB7873
:10154000002B39D0274BDB68DB431B0ADBB203F0EF
:101550000703FB73FB7BC3F10403BB737A7BFB7B49
:1015600042FA03F37B737B685B781A46BB7B02FA13
:1015700003F3FB737B689A787B7B1340DAB2FB7BC7
:101580001343FB73FB7B1B01FB73174A7B681B78C0
:101590001344FA7B83F80023134A7B681B785B09AA
:1015A000DBB218467B681B7803F01F03012101FAA8
:1015B00003F342F820300FE00B497B681B785B098E
:1015C000DBB218467B681B7803F01F0301229A40A8
:1015D00000F1200341F8232000BF1437BD465DF819
:1015E000047B704700ED00E000E100E080B500AF53
:1015F00001214FF4807000F0BBFD00214FF480709A
:1016000000F0B6FD00BF80BD80B485B000AF78604B
:1016100039600023FB600023FB727B685B68FB6022
:10162000FB6823F0407323F48073FB603B681B79F5
:101630001A023B681B681343FA681343FB607B681C
:10164000FA685A607B689B68FB60FA68184B134025
:10165000FB603B681A693B68DB681A433B689B6820
:101660001A433B685B795B001343FA681343FB60E2
:101670007B68FA689A607B68DB6AFB60FB6823F42E
:101680007003FB603B681B7D013BDAB2FB7A1343BE
:10169000FB72FB7A1B05FA681343FB607B68FA68F0
:1016A000DA6200BF1437BD465DF8047B704700BFA7
:1016B000FDF7FFC080B485B000AF78600023FB6009
:1016C0000E4B5B68FB60FA680D4B1340FB607B6858
:1016D0001A687B685B681A437B689B681A437B685F
:1016E000DB681343FA681343FB60044AFB685360EA
:1016F00000BF1437BD465DF8047B704700230140EE
:10170000E030FCFF80B483B000AF78600B46FB7024
:10171000FB78002B06D07B689B6843F001027B6856
:101720009A6005E07B689B6823F001027B689A6001
:1017300000BF0C37BD465DF8047B704780B483B0B2
:1017400000AF0346FB71FB79002B06D0094A094B19
:101750005B6843F40003536005E0064A054B5B6891
:1017600023F40003536000BF0C37BD465DF8047BD3
:10177000704700BF0023014080B483B000AF034630
:10178000FB71FB79002B06D0094A094B5B6843F4D7
:101790008003536005E0064A054B5B6823F4800331
:1017A000536000BF0C37BD465DF8047B704700BF37
:1017B0000023014080B485B000AF78600846114630
:1017C0001A460346FB700B46BB7013467B70002322
:1017D000FB600023BB60FB78092B23D97B68DB68A7
:1017E000FB60FB78A3F10A0213465B001344072257
:1017F00002FA03F3BB60BB68DB43FA681340FB608B
:101800007978FB78A3F10A0213465B00134401FACE
:1018100003F3BB60FA68BB681343FB607B68FA683C
:10182000DA601EE07B681B69FB60FA7813465B0098
:101830001344072202FA03F3BB60BB68DB43FA6878
:101840001340FB607978FA7813465B00134401FA81
:1018500003F3BB60FA68BB681343FB607B68FA68FC
:101860001A61BB78062B21D87B685B6BFB60BB7869
:101870005A1E13469B0013441F2202FA03F3BB6057
:10188000BB68DB43FA681340FB60F978BB785A1EEB
:1018900013469B00134401FA03F3BB60FA68BB686C
:1018A0001343FB607B68FA685A6347E0BB780C2BF4
:1018B00021D87B681B6BFB60BB78DA1F13469B004B
:1018C00013441F2202FA03F3BB60BB68DB43FA68D0
:1018D0001340FB60F978BB78DA1F13469B00134472
:1018E00001FA03F3BB60FA68BB681343FB607B68D3
:1018F000FA681A6322E07B68DB6AFB60BB78A3F1BD
:101900000D0213469B0013441F2202FA03F3BB602F
:10191000BB68DB43FA681340FB60F978BB78A3F13E
:101920000D0213469B00134401FA03F3BB60FA68EF
:10193000BB681343FB607B68FA68DA6200BF143748
:10194000BD465DF8047B704780B483B000AF78601B
:101950000B46FB70FB78002B06D07B689B6843F43A
:1019600080727B689A6005E07B689B6823F48072D4
:101970007B689A6000BF0C37BD465DF8047B7047FA
:1019800080B483B000AF78600B46FB70FB78002B0F
:1019900006D07B689B6843F400727B689A6005E020
:1019A0007B689B6823F400727B689A6000BF0C37E9
:1019B000BD465DF8047B704780B485B000AF7860A9
:1019C00039600023FB607B681B68FB60FA68254B6D
:1019D0001340FB603B681A683B68DB681A433B684E
:1019E0005B691A433B689B691A433B68DB691A438E
:1019F0003B681B6A1A433B685B6A1A433B689B6AF5
:101A00001A433B685B6B1A433B689B6B1343FA6852
:101A10001343FB607B68FA681A607B685B69FB6054
:101A2000FB6823F00703FB603B68DA6A3B681B6BCB
:101A30001343FA681343FB607B68FA685A613B689A
:101A40001A697B685A603B685A687B689A603B6891
:101A50009A687B68DA6000BF1437BD465DF8047B86
:101A6000704700BF3F801CF080B483B000AF786047
:101A70000B46FB70FB78002B06D07B681B6843F09D
:101A800001027B681A6005E07B681B6823F0010295
:101A90007B681A6000BF0C37BD465DF8047B704759
:101AA00080B485B000AF78600023FB737B681B684F
:101AB00003F00103002B02D00123FB7301E000239C
:101AC000FB73FB7B18461437BD465DF8047B7047FB
:101AD00080B485B000AF786039607B68104A93426B
:101AE00002D8104BFB6001E00F4BFB603B6803F03A
:101AF0000053002B07D03B6823F0F02323F0821320
:101B0000FA68D36006E03B6823F0F02323F08213E9
:101B1000FA68936000BF1437BD465DF8047B7047D8
:101B20000F640240006002400064024080B485B04F
:101B300000AFF860B9601346FB71BB6803F0800327
:101B4000002B0FD0FB79002B06D0FB685B6943F0BC
:101B50008002FB685A6105E0FB685B6923F0800244
:101B6000FB685A61BB68802B14D0FB79002B08D02E
:101B7000FB681A68BB6803F01E031A43FB681A600F
:101B800008E0FB681A68BB6803F01E03DB431A40D9
:101B9000FB681A6000BF1437BD465DF8047B7047D0
:101BA00080B487B000AF786039600023FB750023F4
:101BB000FB600023BB607B68224A934202D8224B21
:101BC0003B6101E0214B3B613B6823F0F02323F0B4
:101BD000C313002B0AD03B68DB0A03F01E03FB6033
:101BE0007B681A68FB681340BB6004E07B685B6934
:101BF00003F08003BB603B6803F00053002B03D06D
:101C00003B695B68FB6002E03B691B68FB60FB684B
:101C100023F0F02323F08213FB60FA683B68134043
:101C2000002B05D0BB68002B02D00123FB7501E01F
:101C30000023FB75FB7D18461C37BD465DF8047B11
:101C4000704700BF0F640240006002400064024021
:101C500080B485B000AF786039607B68104A9342E9
:101C600002D8104BFB6001E00F4BFB603B6803F0B8
:101C70000053002B07D03B6823F0F02323F082139E
:101C8000FA68D36006E03B6823F0F02323F0821368
:101C9000FA68936000BF1437BD465DF8047B704757
:101CA0000F640240006002400064024080B400AF54
:101CB000074B1B69002B05DA054B064A5A60044B9B
:101CC000054A5A6000BFBD465DF8047B704700BFFF
:101CD000003C024023016745AB89EFCD80B487B05B
:101CE00000AF7860396000237B6100233B610023F3
:101CF000FB6000237B6176E001227B6902FA03F33B
:101D00003B613B681A683B691340FB60FA683B69BA
:101D10009A4265D17B681A687B695B00032101FAEE
:101D200003F3DB431A407B681A607B681A683B68E0
:101D30001B7919467B695B0001FA03F31A437B6840
:101D40001A603B681B79012B03D03B681B79022B7F
:101D50002ED17B689A687B695B00032101FA03F34B
:101D6000DB431A407B689A607B689A683B685B79C2
:101D700019467B695B0001FA03F31A437B689A609A
:101D80007B685A687B699BB2194601238B40DB4311
:101D90001A407B685A607B685B683A6892791146A2
:101DA0007A6992B201FA02F292B21A437B685A60DF
:101DB0007B68DA687B699BB25B00032101FA03F35D
:101DC000DB431A407B68DA607B68DA683B68DB7962
:101DD00019467B695B0001FA03F31A437B68DA60FA
:101DE0007B6901337B617B690F2B85D900BF1C3771
:101DF000BD465DF8047B704780B483B000AF786067
:101E00007B684FF6FF721A607B6800221A717B684C
:101E100000225A717B6800229A717B680022DA7175
:101E200000BF0C37BD465DF8047B704780B483B0BB
:101E300000AF78600B467B807B687A881A8300BF8E
:101E40000C37BD465DF8047B704780B483B000AFAB
:101E500078600B467B807B687A885A8300BF0C379A
:101E6000BD465DF8047B704780B483B000AF7860F6
:101E70000B467B807B685A697B885A407B685A6135
:101E800000BF0C37BD465DF8047B704780B485B059
:101E900000AF78600B467B8013467B700023FB60AD
:101EA0000023BB607A787B8803F007039B0002FA6B
:101EB00003F3FB607B88DB089BB218467B88DB085A
:101EC0009BB21A467B68083253F822207B8803F0C5
:101ED00007039B000F2101FA03F3DB4302EA03012E
:101EE0007B6800F1080243F822107B88DB089BB274
:101EF0001A467B68083253F82220FB681343BB6004
:101F00007B88DB089BB21A467B680832B96843F8C5
:101F1000221000BF1437BD465DF8047B70470000F7
:101F200080B489B000AF78600023BB6100237B617F
:101F30000023FB6102233B610023FB600223BB60A3
:101F4000474B9B6803F00C03BB61BB69042B07D0B4
:101F5000082B09D0002B3DD17B68424A1A603DE036
:101F60007B68414A1A6039E03D4B5B689B0D03F08A
:101F70000103FB603A4B5B6803F03F03BB60FB6807
:101F8000002B0CD0384ABB68B2FBF3F3344A5268DA
:101F90009209C2F3080202FB03F3FB610BE0314A32
:101FA000BB68B2FBF3F32E4A52689209C2F30802EF
:101FB00002FB03F3FB612A4B5B681B0C03F003037A
:101FC00001335B003B61FA693B69B2FBF3F27B686A
:101FD0001A6003E07B68234A1A6000BF204B9B68AD
:101FE00003F0F003BB61BB691B09BB611F4ABB69FE
:101FF00013441B78DBB27B617B681A687B69DA402B
:102000007B685A60164B9B6803F4E053BB61BB6965
:102010009B0ABB61154ABB6913441B78DBB27B6129
:102020007B685A687B69DA407B689A600C4B9B68D6
:1020300003F46043BB61BB695B0BBB610B4ABB69CB
:1020400013441B78DBB27B617B685A687B69DA409A
:102050007B68DA6000BF2437BD465DF8047B7047BB
:10206000003802400024F40000127A000000002032
:1020700080B483B000AF78600B46FB70FB78002B18
:1020800006D00A49094B1A6B7B6813430B6306E0C1
:102090000649064B1A6B7B68DB4313400B6300BF9A
:1020A0000C37BD465DF8047B704700BF0038024026
:1020B00080B483B000AF78600B46FB70FB78002BD8
:1020C00006D00A49094B1A6C7B6813430B6406E07F
:1020D0000649064B1A6C7B68DB4313400B6400BF58
:1020E0000C37BD465DF8047B704700BF00380240E6
:1020F00080B483B000AF78600B46FB70FB78002B98
:1021000006D00A49094B5A6C7B6813434B6406E0BE
:102110000649064B5A6C7B68DB4313404B6400BF97
:102120000C37BD465DF8047B704700BF00380240A5
:1021300080B483B000AF78600B46FB70FB78002B57
:1021400006D00A49094B1A6A7B6813430B6206E002
:102150000649064B1A6A7B68DB4313400B6200BFDB
:102160000C37BD465DF8047B704700BF0038024065
:1021700080B483B000AF78600B46FB70FB78002B17
:1021800006D00A49094B5A6A7B6813434B6206E042
:102190000649064B5A6A7B68DB4313404B6200BF1B
:1021A0000C37BD465DF8047B704700BF0038024025
:1021B00080B582B000AF78607B68604A934208D1F6
:1021C00001210120FFF7D4FF00210120FFF7D0FFFC
:1021D000AFE07B68B3F1804F08D101210120FFF708
:1021E000A7FF00210120FFF7A3FFA2E07B68544A6C
:1021F000934208D101210220FFF79AFF002102201B
:10220000FFF796FF95E07B684E4A934208D1012183
:102210000420FFF78DFF00210420FFF789FF88E0ED
:102220007B68494A934208D101210820FFF780FFCB
:1022300000210820FFF77CFF7BE07B68434A934244
:1022400008D101211020FFF773FF00211020FFF7B4
:102250006FFF6EE07B683E4A934208D10121202047
:10226000FFF766FF00212020FFF762FF61E07B6837
:10227000384A934208D101210220FFF779FF00215B
:102280000220FFF775FF54E07B68334A93420AD17E
:1022900001214FF48030FFF76BFF00214FF48030B5
:1022A000FFF766FF45E07B682C4A93420AD1012183
:1022B0004FF40030FFF75CFF00214FF40030FFF7D0
:1022C00057FF36E07B68264A93420AD101214FF43A
:1022D0008020FFF74DFF00214FF48020FFF748FFDB
:1022E00027E07B681F4A934208D101214020FFF775
:1022F0001FFF00214020FFF71BFF1AE07B681A4AEE
:10230000934208D101218020FFF712FF0021802095
:10231000FFF70EFF0DE07B68144A934209D10121BB
:102320004FF48070FFF704FF00214FF48070FFF737
:10233000FFFE00BF0837BD4680BD00BF0000014062
:102340000004004000080040000C00400010004065
:1023500000140040000401400040014000440140DE
:102360000048014000180040001C004000200040D0
:1023700080B485B000AF786039600023FB817B6852
:102380001B88FB817B68294A934213D07B68284ACB
:1023900093420FD07B68B3F1804F0BD07B68254A06
:1023A000934207D07B68244A934203D07B68234A38
:1023B000934208D1FB8923F07003FB813B685A8864
:1023C000FB891343FB817B681D4A93420CD07B68D9
:1023D0001C4A934208D0FB8923F44073FB813B687D
:1023E0001A89FB891343FB817B68FA891A803B6851
:1023F0005A687B68DA623B681A887B681A857B6852
:102400000A4A934203D07B68094A934204D13B684D
:102410009B7A9AB27B681A867B6801229A8200BFF7
:102420001437BD465DF8047B704700BF00000140D3
:10243000000401400004004000080040000C00407F
:10244000001000400014004080B483B000AF7860FA
:102450007B685B6A18460C37BD465DF8047B7047A5
:1024600080B483B000AF78600B46FB70FB78002B24
:1024700008D07B681B889BB243F001039AB27B684B
:102480001A8007E07B681B889BB223F001039AB295
:102490007B681A8000BF0C37BD465DF8047B70472F
:1024A00080B485B000AF7860396000237B81002361
:1024B000FB810023BB817B681B8C9BB223F0010353
:1024C0009AB27B681A847B681B8CFB817B689B8833
:1024D000BB817B681B8B7B817B8923F070037B81B5
:1024E0007B8923F003037B813B681A887B89134334
:1024F0007B81FB8923F00203FB813B689A89FB897E
:102500001343FB813B685A88FB891343FB817B683B
:102510001E4A934203D07B681D4A934223D1FB8914
:1025200023F00803FB813B68DA89FB891343FB81B5
:10253000FB8923F00403FB813B689A88FB891343E2
:10254000FB81BB8923F48073BB81BB8923F40073B7
:10255000BB813B681A8ABB891343BB813B685A8A9B
:10256000BB891343BB817B68BA899A807B687A896F
:102570001A833B689A687B685A637B68FA891A8475
:1025800000BF1437BD465DF8047B70470000014072
:102590000004014080B485B000AF7860396000234A
:1025A0007B810023FB810023BB817B681B8C9BB25A
:1025B00023F010039AB27B681A847B681B8CFB8122
:1025C0007B689B88BB817B681B8B7B817B8923F429
:1025D000E0437B817B8923F440737B813B681B88CC
:1025E0001B029AB27B8913437B81FB8923F0200372
:1025F000FB813B689B891B019AB2FB891343FB81DA
:102600003B685B881B019AB2FB891343FB817B68A3
:10261000224A934203D07B68214A93422BD1FB8903
:1026200023F08003FB813B68DB891B019AB2FB89A5
:102630001343FB81FB8923F04003FB813B689B88AC
:102640001B019AB2FB891343FB81BB8923F480638E
:10265000BB81BB8923F40063BB813B681B8A9B0061
:102660009AB2BB891343BB813B685B8A9B009AB2D9
:10267000BB891343BB817B68BA899A807B687A895E
:102680001A833B689A687B689A637B68FA891A8424
:1026900000BF1437BD465DF8047B70470000014061
:1026A0000004014080B485B000AF78603960002339
:1026B0007B810023FB810023BB817B681B8C9BB249
:1026C00023F480739AB27B681A847B681B8CFB812D
:1026D0007B689B88BB817B689B8B7B817B8923F09C
:1026E00070037B817B8923F003037B813B681A881D
:1026F0007B8913437B81FB8923F40073FB813B6857
:102700009B891B029AB2FB891343FB813B685B8860
:102710001B029AB2FB891343FB817B68224A9342D6
:1027200003D07B68214A93422BD1FB8923F40063B9
:10273000FB813B68DB891B029AB2FB891343FB8157
:10274000FB8923F48063FB813B689B881B029AB260
:10275000FB891343FB81BB8923F48053BB81BB8975
:1027600023F40053BB813B681B8A1B019AB2BB89CF
:102770001343BB813B685B8A1B019AB2BB8913433D
:10278000BB817B68BA899A807B687A899A833B6827
:102790009A687B68DA637B68FA891A8400BF143709
:1027A000BD465DF8047B7047000001400004014015
:1027B00080B485B000AF78600B467B800023FB813E
:1027C0007B681B8BFB81FB8923F00803FB81FA8963
:1027D0007B881343FB817B68FA891A8300BF143717
:1027E000BD465DF8047B704780B485B000AF78606B
:1027F0000B467B800023FB817B681B8BFB81FB8965
:1028000023F40063FB817B881B029AB2FB8913438C
:10281000FB817B68FA891A8300BF1437BD465DF8D7
:10282000047B704780B485B000AF78600B467B8036
:102830000023FB817B689B8BFB81FB8923F00803D2
:10284000FB81FA897B881343FB817B68FA899A8331
:1028500000BF1437BD465DF8047B704780B483B079
:1028600000AF78607B685B6B18460C37BD465DF83F
:10287000047B704780B483B000AF786039603B68F8
:102880001A883B685B8813439AB23B689B88134362
:102890009AB23B68DB8813439AB23B681B891343A7
:1028A0009AB23B685B8913439AB23B689B89134396
:1028B0009AB27B68A3F8442000BF0C37BD465DF890
:1028C000047B704780B483B000AF78600B46FB7028
:1028D000FB78002B0CD07B68B3F844309BB26FEAD6
:1028E00043436FEA53439AB27B68A3F8442009E05C
:1028F0007B68B3F844309BB2C3F30E039AB27B6893
:10290000A3F8442000BF0C37BD465DF8047B704738
:1029100080B483B000AF78600B467B8013467B7039
:102920007B78002B08D07B689B899AB27B88134305
:102930009AB27B689A8109E07B689B899AB27B880E
:10294000DB439BB213409AB27B689A8100BF0C377D
:10295000BD465DF8047B704780B485B000AF7860F9
:102960000B467B800023FB730023BB8100237B810C
:102970007B681B8A9AB27B881340BB817B689B89EA
:102980009AB27B8813407B81BB89002B05D07B8961
:10299000002B02D00123FB7301E00023FB73FB7BC0
:1029A00018461437BD465DF8047B704780B483B089
:1029B00000AF78600B467B807B88DB439AB27B68F4
:1029C0001A8200BF0C37BD465DF8047B704780B4A7
:1029D00083B000AF78600B467B807B689B889BB29E
:1029E00023F070039AB27B689A807B689B889AB2C6
:1029F0007B8813439AB27B689A8000BF0C37BD4630
:102A00005DF8047B7047000080B58AB000AF786045
:102A1000396000237B6200233B620023FB610023BB
:102A2000BB617B681B8A9BB27B627B6A23F4405349
:102A30007B623B68DB881A467B6A13437B627B6A56
:102A40009AB27B681A827B689B899BB27B627B6AA5
:102A500023F4B05323F00C037B623B689A883B68F5
:102A60001B8913439AB23B685B8913439BB21A4696
:102A70007B6A13437B627B6A9AB27B689A817B682C
:102A80009B8A9BB27B627B6A23F440737B623B68C8
:102A90009B891A467B6A13437B627B6A9AB27B6886
:102AA0009A8207F108031846FFF73AFA7B68304A22
:102AB000934203D07B682F4A934202D17B693B62E9
:102AC00001E03B693B627B689B899BB21BB2002B98
:102AD0000CDA3A6A13469B0013449A001A443B6886
:102AE0001B685B00B2FBF3F3FB610BE03A6A134631
:102AF0009B0013449A001A443B681B689B00B2FB7E
:102B0000F3F3FB61FB691C4AA2FB03235B091B0176
:102B10007B627B6A1B09642202FB03F3FA69D31A06
:102B2000BB617B689B899BB21BB2002B0CDABB6933
:102B3000DB003233104AA2FB03235B0903F00703D7
:102B40007A6A13437B620BE0BB691B0132330A4A8A
:102B5000A2FB03235B0903F00F037A6A13437B6232
:102B60007B6A9AB27B681A8100BF2837BD4680BD58
:102B700000100140001401401F85EB5180B483B068
:102B800000AF78600B46FB70FB78002B08D07B68A9
:102B90009B899BB243F400539AB27B689A8107E009
:102BA0007B689B899BB223F400539AB27B689A811D
:102BB00000BF0C37BD465DF8047B704780B483B01E
:102BC00000AF78600B467B807B88C3F308039AB222
:102BD0007B689A8000BF0C37BD465DF8047B704768
:102BE00080B483B000AF78607B689B889BB2C3F3EE
:102BF00008039BB218460C37BD465DF8047B70474E
:102C000080B487B000AF78600B467B8013467B7042
:102C100000233B610023FB600023BB6000237B613A
:102C20007B687B617B88DBB25B09DBB23B617B88C5
:102C300003F01F03FB600122FB6802FA03F3BB6091
:102C40003B69012B03D17B690C337B6109E03B6954
:102C5000022B03D17B6910337B6102E07B69143363
:102C60007B617B78002B06D07B697A691168BA6832
:102C70000A431A6006E07B697A691168BA68D24330
:102C80000A401A6000BF1C37BD465DF8047B7047E0
:102C900080B485B000AF78600B467B800023FB7367
:102CA0007B681B889AB27B8813409BB2002B02D0B2
:102CB0000123FB7301E00023FB73FB7B18461437F1
:102CC000BD465DF8047B704780B485B000AF786086
:102CD0000B467B800023FB810023BB817B881B0A82
:102CE000FB81FB89012202FA03F3BB81BB89DB4331
:102CF0009AB27B681A8000BF1437BD465DF8047B2A
:102D00007047000080B483B000AF7860054A7B68EC
:102D100032F813309BB218460C37BD465DF8047B81
:102D2000704700BFEC09002080B400AF03231846B1
:102D3000BD465DF8047B704780B586B000AF0121C9
:102D40000120FFF795F94FF400733B6103237B7576
:102D500002233B750023BB750123FB7507F11003AC
:102D600019462548FEF7BAFF072209212248FFF736
:102D70008DF84FF480633B610023FB7507F110036E
:102D800019461D48FEF7AAFF07220A211A48FFF735
:102D90007DF801211020FFF7ABF94FF4E1333B60E0
:102DA0000023BB800023FB8000233B810023BB81E9
:102DB0000C237B813B4619461048FFF725FE012175
:102DC0000E48FFF7DBFE0E4B1B689B680021184680
:102DD00002F0E2FC0A4B1B68DB680021184602F097
:102DE000DBFC074B1B685B680021184602F0D4FC33
:102DF00000BF1837BD4680BD0000024000100140F2
:102E00002400002080B582B000AF4FF44070FEF780
:102E100077FB25233B7101237B710023BB710123C9
:102E2000FB713B1D1846FEF77FFB012240F2255146
:102E30000348FFF7E5FE00BF0837BD4680BD00BF71
:102E40000010014080B584B000AF1448FFF7B0F91E
:102E500001210220FFF72CF940F24653BB6000230A
:102E6000BB800023FB800023BB810023BB733B1D81
:102E700019460A48FFF77CFA20210848FFF7A7FD0A
:102E800001210648FFF7ECFA012201210348FFF770
:102E90003FFD00BF1037BD4680BD00BF00040040AD
:102EA00080B582B000AF32233B7101237B710323D5
:102EB000BB710123FB713B1D1846FEF735FB00BFBC
:102EC0000837BD4680BD000080B584B000AF134810
:102ED000FFF76EF901210820FFF7EAF84FF47A7343
:102EE000BB600023BB800023FB800023BB813B1D14
:102EF00019460A48FFF73CFA20210848FFF767FD0A
:102F0000012202210548FFF703FD01210348FFF7D5
:102F1000A7FA00BF1037BD4680BD00BF000C0040BF
:102F200080B582B000AF4FF44070FEF7E9FA382365
:102F30003B7102237B710023BB710123FB713B1D9D
:102F40001846FEF7F1FA00BF0837BD4680BD80B5D0
:102F500082B000AF4FF44070FEF7D2FA32233B71DB
:102F600001237B710023BB710123FB713B1D1846BC
:102F7000FEF7DAFA00BF0837BD4680BD80B582B0E3
:102F800000AF0A490A48FEF70BFE0346FB710749EA
:102F90000748FEF75DFEFB79002B02D0054B0122AE
:102FA0001A7000BF0837BD4680BD00BF20800010EA
:102FB00010640240400A002080B582B000AF0221B8
:102FC0000948FFF7C9FC0346FB7102210648FFF7D9
:102FD000EDFCFB79002B02D0044B1B68984700BF27
:102FE0000837BD4680BD00BF000C00403C0A0020F1
:102FF00080B582B000AF01210648FFF7ADFC034663
:10300000FB7101210348FFF7D1FC00BF0837BD4623
:1030100080BD00BF0004004080B483B000AF786082
:10302000044A7B68136000BF0C37BD465DF8047B23
:10303000704700BF3C0A002080B400AF034B1B78F0
:10304000DBB21846BD465DF8047B7047400A00209D
:1030500080B400AF034B00221A7000BFBD465DF87C
:10306000047B7047400A002080B58AB000AFFEF7AD
:10307000BDFA01214FF48070FFF73AF80023BB61DD
:103080000023FB614FF480433B6200237B6207F126
:1030900018031846FEF70EFB0120FEF74FFB012038
:1030A000FEF76AFB01233B7100237B7103233B7511
:1030B0004FF00063FB604FF08053BB6000233B6127
:1030C00000233B603B4619461248FEF79DFA002359
:1030D000012200210F48FEF76DFB0023022201218F
:1030E0000C48FEF767FB0023032202210948FEF784
:1030F00061FB01210748FEF743FC01210548FEF76B
:1031000023FC01210348FEF7FDFA00BF2837BD4626
:1031100080BD00BF0020014080B58AB000AFFEF73F
:1031200065FA01214FF40070FEF7E2FF0023BB6156
:103130000023FB614FF480433B6200237B6207F175
:1031400018031846FEF7B6FA0120FEF7F7FA012039
:10315000FEF712FB01233B7100237B7102233B75B9
:103160004FF03063FB604FF08053BB6000233B6146
:1031700000233B603B4619460F48FEF745FA002303
:1031800001220A210D48FEF715FB002302220B2124
:103190000A48FEF70FFB01210848FEF7F1FB012169
:1031A0000648FEF7D1FB01210448FEF7ABFA00BF49
:1031B0002837BD4680BD00BF0020014000210140EE
:1031C00080B590B000AF01214FF48000FEF750FFB2
:1031D000244BBB6000237B604FF48073BB624FF4D1
:1031E0000033FB624FF400633B624FF400537B6299
:1031F0004FF48063FB610023BB6100233B61032329
:103200007B6100233B6301237B630023BB630023BB
:10321000FB63154BFB603B1D19461448FEF7CCFBC6
:10322000012210211148FEF781FC11490F48FEF7D9
:103230004FFC012210210D48FEF778FC0C490B4889
:10324000FEF746FC01210948FEF70EFC00BF0748C7
:10325000FEF726FC0346002BF9D000BF4037BD46E1
:1032600080BD00BF08230140EC090020106402402B
:103270002000001080B590B000AF01214FF4001085
:10328000FEF7F6FE224BBB604FF060637B604FF4AD
:103290008073BB624FF40033FB624FF480533B6298
:1032A0004FF480437B624FF48063FB610023BB617A
:1032B00040233B6103237B6100233B6301237B634A
:1032C0000023BB630023FB63124BFB603B1D1946CD
:1032D0001148FEF771FB11490F48FEF7F9FB012277
:1032E00010210D48FEF722FC0C490B48FEF7F0FBBD
:1032F00001210948FEF7B8FB00BF0748FEF7D0FBE5
:103300000346002BF9D000BF4037BD4680BD00BF4B
:1033100008230140EC0900208860024020000010D2
:1033200098B500AFFFF708FD514802F0CBF900F067
:10333000AFFD504802F0C6F9FFF764FDFFF7F0FD5E
:10334000FFF705FE4C4802F0BDF942F2107000F0A4
:10335000CDFB4A4802F0B6F9FFF732FF484802F0C9
:10336000B1F9FFF781FE474802F0ACF9FFF76AFDBB
:10337000454802F0A7F94548FFF74EFEFFF7A4FDC8
:10338000434802F09FF901F037FE424802F09AF9F3
:10339000414800F0ABFB414802F094F900F008FA14
:1033A0003F4802F08FF93F4802F08CF9FFF778FDB3
:1033B000394800F09BFB3C4BD3ED006A3B4B93ED4F
:1033C000007AC6EE877AB0EE007A77EE677A384BED
:1033D000C3ED007A354B1B681846FDF78BF80346A2
:1033E0000C461A4623461EA1D1E90001FDF700FA5A
:1033F00003460C4618462146FDF78AFB02462D4B34
:103400001A602A4B93ED007ADFED2B6AC7EE267A1D
:103410002A4BC3ED007A264B1B681846FDF76AF865
:1034200003460C461A4623460FA1D1E90001FDF7D9
:10343000DFF903460C461A4623464FF000002049A8
:10344000FDF7D6F903460C4618462146FDF760FB0A
:1034500002461C4B1A60FEF729FC00BF98BD00BF56
:103460004B5986380A00C4400000000000FE9F400F
:1034700068E7000884E70008A0E70008BCE7000848
:10348000DCE70008F4E700080CE80008D93400087D
:103490002CE8000854E80008A08601006CE8000849
:1034A00098E80008B8E80008140000201000002088
:1034B0004C0A0020500A002000F07F45540A0020EA
:1034C00000002440580A002080B500AFFFF724FE1A
:1034D000FFF7D0FE00BF80BD80B500AF00F016FB47
:1034E00000BF80BD80B5A4B002AF00233B6507F1EB
:1034F00054032E220021184602F096F800233B6365
:1035000007F1340300221A605A609A60DA601A6187
:103510005A611A8300233B6107F1140300221A60E9
:103520005A609A60DA601A615A611A830023C7F8F8
:1035300084304FF0FF33FB604FF0FF33BB604FF040
:10354000FF337B604FF0FF333B606B4B1B78DBB28C
:10355000002B03D1694802F0B5F8C2E0664B1B7836
:10356000DBB2012B12D1664B1B78DBB2732B09D176
:103570000023FB60FB68184600F0E0FD6148FFF7A0
:103580004BFDAEE05D4802F09DF8AAE05A4B1B7877
:10359000DBB2012B40F2A580574B1B78DBB21A46F9
:1035A00007F150035649184602F038FA524B1B787F
:1035B000DBB207F188021344002203F8382C07F12C
:1035C00050031946504802F07DF807F1300207F128
:1035D00050034E49184602F0AFF9C7F8840007F1CE
:1035E00030034B491846FDF7EFFA0346002B06D18E
:1035F0004448FFF711FD4748FFF70EFD27E007F1AC
:10360000300345491846FDF7DFFA0346002B02D187
:1036100000F0CEF81BE007F1300340491846FDF7F3
:10362000D3FA0346002B02D100F0EAF80FE007F1CD
:103630000C013A4607F150003B1D019307F10803C6
:1036400000930B46364902F077F9C7F884002A4BFD
:103650001B78DBB2012B41D9D7F88430012B40DD38
:103660003B68032B06D1FB68BA681146184600F088
:103670001FF936E0FB68002BCCBF01230023DAB230
:10368000FB68032BD4BF01230023DBB21340DBB262
:10369000002B1FD03B68012B05D1FB68B9687A6805
:1036A000184601F0B3F83B68022B05D1FB68B968F6
:1036B0007A68184600F000FF3B68042B06D1FB68CF
:1036C000B9687A68184601F0DBF90AE00B4801F0A6
:1036D000F9FF06E0094801F0F5FF02E0074801F0B4
:1036E000F1FF054B00221A700E4B00221A7000BF2A
:1036F0008837BD4680BD00BF480A002008E90008A1
:10370000A0DF0120D93400081CE9000820E90008E6
:1037100024E90008C93400082CE9000830E9000851
:1037200034E90008490A002080B400AF034B1B783D
:10373000DBB21846BD465DF8047B7047490A00209D
:1037400080B582B000AF1648FFF74AFA0346FB7116
:1037500040F225511248FFF7B7FA124B1B78DBB243
:10376000002B19D1FB790D2B03D10E4B01221A70BE
:1037700012E00D4B1B78DBB23A2B02D90A4B002228
:103780001A70094B1B78DBB25A1CD1B2064A117071
:103790001946064AFB79535400BF0837BD4680BD21
:1037A00000100140490A0020480A0020A0DF012043
:1037B00080B582B000AF01210420FEF759FC4FF420
:1037C00000533B6001233B710023BB7103237B71DA
:1037D0000023FB713B4619460748FEF77FFA07486E
:1037E00001F070FF4FF400510348FEF71FFB00BFCC
:1037F0000837BD4680BD00BF0008024040E9000810
:1038000080B500AF4FF400510248FEF71EFB00BF29
:1038100080BD00BF0008024090B585B000AF786061
:103820000023FB600023BB601D4801F0ADFF2CE0CE
:10383000FB680133FB60FFF7FFFB0346002B21D041
:103840000023BB6014E0FFF76FFA03461A46FB68DB
:1038500003FB02F2BB6813449B00124A9C18BB682E
:103860001846FFF74FFA03462360BB680133BB607D
:10387000FFF75AFA03461A46BB689A42E3D8FFF7A5
:10388000E7FB02E0FB68013BFB60FA687B689A4259
:10389000CED3054801F016FF00BF1437BD4690BDDA
:1038A00048E90008700A00205CE9000800000000F8
:1038B000B0B588B000AF786039608348FEF778FC17
:1038C00001210220FEF7F4FB7B68FB6000233B81B3
:1038D00000237B8100233B820023BB7407F1080394
:1038E00019467948FEF744FD20217748FFF76FF825
:1038F00001217548FEF7B4FD0023FB610023BB6185
:103900000023FB823B681846FFF786FF0023FB611C
:10391000CCE00023BB61BEE0FFF706FA03461A467F
:10392000FB6903FB02F2BB6913449B00674A134423
:103930001B68FB82BB69002B36D1654801F0C2FED3
:10394000FB8A07EE903AF8EE677A17EE900AFCF7DA
:10395000D1FD5BA3D3E90023FCF76CFC03460C46C6
:10396000184621464FF000025A4BFCF717FE03465B
:103970000C4625461C46584B1B681846FCF7BAFDFA
:1039800002460B464EA1D1E90001FCF731FF024689
:103990000B4620462946FCF72BFF03460C461A46E9
:1039A00023464E4801F08EFEBB69012B36D14C48B0
:1039B00001F088FEFB8A07EE903AF8EE677A17EE80
:1039C000900AFCF797FD3EA3D3E90023FCF732FCF5
:1039D00003460C46184621464FF000023D4BFCF7CB
:1039E000DDFD03460C4625461C463B4B1B6818462E
:1039F000FCF780FD02460B4631A1D1E90001FCF73E
:103A0000F7FE02460B4620462946FCF7F1FE034628
:103A10000C461A462346314801F054FEBB69022B7E
:103A200036D1304801F04EFEFB8A07EE903AF8EEB0
:103A3000677A17EE900AFCF75DFD21A3D3E9002316
:103A4000FCF7F8FB03460C46184621464FF00002EF
:103A5000204BFCF7A3FD03460C4625461C461E4B97
:103A60001B681846FCF746FD02460B4614A1D1E937
:103A70000001FCF7BDFE02460B4620462946FCF736
:103A8000B7FE03460C461A462346174801F01AFEB5
:103A9000BB690133BB61FFF747F903461A46BB69AF
:103AA0009A423FF639AFFB690133FB613B68FA6923
:103AB0009A42FFF42EAF00BF2037BD46B0BD00BF15
:103AC0000000000000FE9F4000040040700A00203B
:103AD0006CE90008000024404C0A002080E900083E
:103AE00084E9000898E90008ACE9000880B483B0D4
:103AF00000AF786000BF7B685A1E7A60002BFAD155
:103B000000BF0C37BD465DF8047B704780B500AF41
:103B1000B24B1B68B24A934208D14FF48061B1485E
:103B2000FEF7A2F9AD4B00221A60A6E1AB4B1B6871
:103B3000AD4A934205D14FF40061AA48FEF794F9CB
:103B40009BE1A64B1B68A94A934205D14FF48051D3
:103B5000A448FEF789F990E1A04B1B68A44A934260
:103B600005D14FF400519F48FEF77EF985E19B4B4C
:103B70001B68A04A934205D14FF400619948FEF7B3
:103B800073F97AE1954B1B689B4A934214D14FF429
:103B900080619448FEF768F94FF400619148FEF7A0
:103BA00063F94FF480518F48FEF75EF94FF40051EE
:103BB0008C48FEF759F960E1884B1B688F4A9342A5
:103BC00014D14FF480618748FEF74EF94FF400613D
:103BD0008448FEF749F94FF480518248FEF744F9D2
:103BE0004FF400517F48FEF73FF946E17B4B1B68DD
:103BF000834A934214D14FF480617A48FEF734F936
:103C00004FF400617748FEF72FF94FF48051754863
:103C1000FEF72AF94FF400517248FEF725F92CE11E
:103C20006E4B1B68774A934214D14FF480616D4804
:103C3000FEF71AF94FF400616A48FEF715F94FF4E0
:103C400080516848FEF710F94FF400516548FEF7BF
:103C50000BF912E1614B1B686B4A934205D14FF49B
:103C600080516048FEF700F907E15C4B1B68674A2A
:103C700093420AD14FF480515A48FEF7F5F84FF4B9
:103C800000515848FEF7F0F8F7E0544B1B684FF628
:103C9000E85293420AD14FF400615248FEF7E4F82B
:103CA0004FF400514F48FEF7DFF8E6E04B4B1B683E
:103CB0004FF2244293420AD14FF480614948FEF703
:103CC000D3F84FF400614748FEF7CEF8D5E0434BF8
:103CD0001B684EF6602293420AD14FF4806141483E
:103CE000FEF7C2F84FF480513E48FEF7BDF8C4E03D
:103CF0003A4B1B684EF29C0293420AD14FF480511A
:103D00003848FEF7B1F84FF400513648FEF7ACF8EA
:103D1000B3E0324B1B684DF2D86293420AD14FF4A4
:103D200000613048FEF7A0F84FF400512D48FEF72F
:103D30009BF8A2E0294B1B684CF6145293420AD11F
:103D40004FF480612748FEF78FF84FF40061254853
:103D5000FEF78AF891E0214B1B684CF250329342F7
:103D600005D14FF480611F48FEF77EF885E01B4BBC
:103D70001B684BF29872934214D14FF4806119483A
:103D8000FEF772F84FF400611648FEF76DF84FF435
:103D900080511448FEF768F84FF400511148FEF7BF
:103DA00063F86AE00D4B1B6848F2E80293422FD19A
:103DB0004FF480610B48FEF757F84FF40061094853
:103DC000FEF752F84FF480510648FEF74DF84FF4D5
:103DD00000510448FEF748F84FE000BF440A0020B5
:103DE000400D0300000C024098AB0200F0490200B5
:103DF00048E80100A0860100E87A0100486B010054
:103E000080380100F824010070110100AC070100A6
:103E10001D4B1B6844F62062934214D14FF480611D
:103E20001A48FEF721F84FF400611848FEF71CF815
:103E30004FF480511548FEF717F84FF4005113481E
:103E4000FEF712F819E0104B1B6842F21072934211
:103E500013D14FF480610D48FEF706F84FF400616E
:103E60000A48FEF701F84FF480510848FDF7FCFFBF
:103E70004FF400510548FDF7F7FF034B1B68013372
:103E8000014A136000BF80BD440A0020000C0240BC
:103E900080B582B000AF3B461846FDF7ADFF01216B
:103EA0000820FEF7E5F84FF470533B6001233B71A7
:103EB0000023BB7103237B710023FB713B46194632
:103EC0005648FDF70BFF01210120FEF7D1F80F2323
:103ED0003B6003233B710023FB713B46194650486E
:103EE000FDF7FCFE01210420FEF7C2F81F233B6012
:103EF00003233B710023FB713B4619464948FDF7FC
:103F0000EDFE01211020FEF7B3F87E233B60012374
:103F10003B710023BB7103237B710023FB713B4684
:103F200019464148FDF7DAFE01210420FEF7A0F80A
:103F30004FF400633B6001233B710023BB710323FB
:103F40007B710023FB713B4619463648FDF7C6FEE0
:103F500001210120FEF78CF84FF4C8533B60002389
:103F60003B710023BB7103237B710023FB713B4634
:103F700019462B48FDF7B2FE01210420FEF778F820
:103F80004FF480633B6000233B710023BB7103232C
:103F90007B710023FB713B4619462248FDF79EFECC
:103FA00001210120FEF764F830233B6003233B71BD
:103FB0000023FB710023BB7103237B713B46194631
:103FC0001748FDF78BFE01210120FEF751F8402331
:103FD0003B6000233B710023BB7103237B710223F1
:103FE000FB713B4619460E48FDF778FE0121102073
:103FF000FEF73EF84FF400433B6000233B71002383
:10400000BB7103237B710223FB713B4619460648B3
:10401000FDF764FE00BF0837BD4680BD000C0240BE
:1040200000000240000802400010024080B500AFCE
:10403000FFF776F9FFF778FB0346002BFAD0FFF77E
:1040400051FAF7E780B588B000AF01210420FEF7F0
:104050002FF83B461846FDF763FF1E233B740323EE
:104060007B740A23BB740123FB7407F11003184609
:10407000FDF75AFA40F2E733BB61BB685B000F4AB9
:10408000A2FB03235B0B9BB2013B9BB2BB820023D1
:10409000BB830023FB8207F1140319460848FEF78F
:1040A00067F9012201210648FEF732FC012104488C
:1040B000FEF7D6F900BF2037BD4680BD5917B7D1EE
:1040C0000008004080B582B000AF01211548FEF71E
:1040D00043FC0346FB7101211248FEF767FCFB79A4
:1040E000002B1AD0104B1B6801330F4A13600E4B84
:1040F0001A680E4B1B689A420FD100210C48FEF73C
:10410000E1FB00210B48FEF7DDFB0B4B1B68013385
:10411000094A1360044B00221A6000BF0837BD46ED
:1041200080BD00BF0008004038DF01203CDF0120D7
:10413000000001400004014034DF012080B58EB052
:1041400000AF78609648FEF733F89648FEF730F8EF
:10415000954B1B68FB6000233B8100233B820023BF
:104160007B810023BB7407F1080319468C48FEF7D6
:10417000FFF807F1080319468A48FEF7F9F84FF4EB
:104180000063BB824FF48063FB8200233B83874B39
:104190001B689BB27B834FF48053BB834FF4005367
:1041A000FB8300233B8407F1140319467C48FEF788
:1041B00061FB07F1140319467A48FEF75BFB6023A5
:1041C000BB840023FB620123FB8404233B85002383
:1041D0003B8600237B864FF48073BB864FF40073CD
:1041E000FB8607F1240319466D48FEF759F907F1DC
:1041F000240319466A48FEF7CDF907F1240319464E
:104200006748FEF74FFA07F1240319466548FEF7A1
:1042100047F97B68002B0ED100216148FEF752FB65
:1042200000216048FEF74EFB614801F04BFA6148FF
:1042300001F048FA35E17B68002B40F332817B685E
:10424000032B00F32E817B68012B44D1564B1B6856
:10425000DA0F13445B10FB627023BB8407F1240365
:1042600019464F48FEF796F908214D48FEF7BCFA6B
:104270004D4B1B68DA0F13445B10FB626023BB8459
:1042800007F1240319464648FEF70AF90821444875
:10429000FEF78EFA424A424B1B889BB243F08003E2
:1042A0009BB213803E4A3E4B1B889BB243F00103F6
:1042B0009BB213803A4A3A4BB3F844309BB26FEA50
:1042C00043436FEA53439BB2A2F8443079683A48BB
:1042D00001F0F8F9E5E07B68022B6FD1324B1B68E7
:1042E000DA0F13445B10FB627023BB8407F12403D5
:1042F00019462C48FEF7D4F808212A48FEF758FA48
:10430000294B1B68DA0F13445B10FB626023BB84EC
:1043100007F1240319462248FEF7C4F90821204872
:10432000FEF780FA1F4A1F4B1B889BB243F08003A5
:104330009BB213801A4A1A4B1B889BB243F080032E
:104340009BB21380174A174B1B889BB243F00103A3
:104350009BB21380124A124B1B889BB243F001039D
:104360009BB213800F4A0F4BB3F844309BB26FEAF5
:1043700043436FEA53439BB2A2F84430084A084BC8
:10438000B3F844309BB26FEA43436FEA53439BB2A6
:10439000A2F844307968084801F094F981E000BF40
:1043A00000000140000401401C000020200000200B
:1043B000B4E90008D4E9000810EA00087B68032B80
:1043C0006FD13A4B1B68DA0F13445B10FB6270230A
:1043D000BB8407F1240319463548FEF7DBF80821B2
:1043E0003348FEF701FA07F1240319463148FEF776
:1043F00057F808212F48FEF7DBF92C4B1B68DA0F22
:1044000013445B10FB626023BB8407F1240319464D
:104410002748FEF745F808212548FEF7C9F907F1B6
:10442000240319462248FEF73DF908212048FEF7EB
:10443000F9F9204A1F4B1B889BB243F080039BB2C3
:1044400013801B4A1A4B1B889BB243F080039BB21C
:104450001380184A174B1B889BB243F001039BB291
:104460001380134A124B1B889BB243F001039BB28B
:104470001380104A0F4BB3F844309BB26FEA4343AA
:104480006FEA53439BB2A2F84430094A084BB3F891
:1044900044309BB26FEA43436FEA53439BB2A2F8A6
:1044A000443000BF3837BD4680BD00BF1C0000202F
:1044B000000001400004014080B590B000AFF860FA
:1044C000B9607A6000F098FD00218748FEF7FAF99C
:1044D0008648FDF76DFE8648FDF76AFEBB687B6186
:1044E00000233B8200233B8300237B820023BB7697
:1044F00007F1100319467D48FDF73AFF4FF40063BA
:10450000BB834FF48063FB8300233B84794B1B68A0
:104510009BB27B844FF48053BB844FF40053FB84E5
:1045200000233B8507F11C0319467048FEF7A2F9EA
:104530006023BB8500237B630123FB8504233B862B
:1045400000233B8700237B874FF48073BB874FF4A6
:104550000073FB8707F12C0319466448FDF7A0FFA1
:1045600007F12C0319466148FEF714F807F12C03F4
:1045700019465E48FEF796F8FB68002B0ED1002125
:104580005A48FEF79FF900215948FEF79BF95A480F
:1045900001F098F8594801F095F81EE1FB68002BEE
:1045A00040F31B81FB68032B00F31781FB68012B91
:1045B0003ED17B687B637023BB8507F12C031946D2
:1045C0004A48FDF7E7FF08214848FEF70DF97B68E8
:1045D0007B636023BB8507F12C0319464348FDF735
:1045E0005FFF08214148FEF7E3F8404A3F4B1B8834
:1045F0009BB243F080039BB213803C4A3B4B1B8829
:104600009BB243F001039BB21380384A374BB3F897
:1046100044309BB26FEA43436FEA53439BB2A2F824
:104620004430324A7B685363304A7B689363D4E0FA
:10463000FB68022B66D17B687B637023BB8507F127
:104640002C0319462A48FDF72BFF08212848FEF7BE
:10465000AFF87B687B636023BB8507F12C031946A9
:104660002248FEF71FF808212048FEF7DBF8204A11
:104670001F4B1B889BB243F080039BB213801B4AE5
:104680001A4B1B889BB243F080039BB21380184ADD
:10469000174B1B889BB243F001039BB21380134A54
:1046A000124B1B889BB243F001039BB21380104A4C
:1046B0000F4BB3F844309BB26FEA43436FEA534366
:1046C0009BB2A2F84430094A084BB3F844309BB27D
:1046D0006FEA43436FEA53439BB2A2F84430F96850
:1046E000074800F0EFFF78E00008004000000140BC
:1046F0000004014020000020B4E90008D4E90008CB
:1047000010EA0008FB68032B67D17B687B6370238A
:10471000BB8507F12C0319463348FDF73BFF082101
:104720003148FEF761F807F12C0319462F48FDF7D1
:10473000B7FE08212D48FEF73BF87B687B636023BA
:10474000BB8507F12C0319462748FDF7A9FE082170
:104750002548FEF72DF807F12C0319462248FDF7EE
:10476000A1FF08212048FEF75DF8204A1F4B1B8857
:104770009BB243F080039BB213801B4A1A4B1B88E9
:104780009BB243F080039BB21380184A174B1B88DF
:104790009BB243F001039BB21380134A124B1B8858
:1047A0009BB243F001039BB21380104A0F4BB3F846
:1047B00044309BB26FEA43436FEA53439BB2A2F883
:1047C0004430094A084BB3F844309BB26FEA434384
:1047D0006FEA53439BB2A2F84430054800F072FFE1
:1047E00000BF4037BD4680BD0000014000040140CD
:1047F00034EA000880B483B000AF78607B68DB6A7D
:1048000018460C37BD465DF8047B704780B58CB008
:1048100000AFF860B9607A6000219348FEF752F863
:1048200000219148FDF71CFE9048FDF7C1FC90481F
:10483000FDF7BEFC00F078FABB687B6100233B8289
:1048400000233B8300237B820023BB7607F1100308
:1048500019468648FDF78CFD07F110031946844878
:10486000FDF786FD8148FDF7F9FF8048FDF7ECFD77
:104870007E48FFF7BFFF6023BB8300237B620123D9
:10488000FB8304233B8400233B8500237B854FF47B
:104890008073BB854FF40073FB8507F11C03194639
:1048A0007248FDF7FDFD07F11C0319466F48FDF73F
:1048B00071FE07F11C0319466C48FDF7F3FE07F182
:1048C0001C0319466A48FDF7EBFD07F11C03194666
:1048D0006748FDF75FFEFB68002B0ED1002163489F
:1048E000FDF7F0FF00216248FDF7ECFF614800F0A2
:1048F000E9FE614800F0E6FEB2E0FB68002B40F301
:10490000AF80FB68032B00F3AB80FB68012B23D146
:10491000564A564B1B889BB243F080039BB21380D0
:10492000524A524B1B889BB243F001039BB2138047
:104930004E4A4E4BB3F844309BB26FEA43436FEAA2
:1049400053439BB2A2F84430484A7B685363F968EA
:104950004A4800F0B7FE83E0FB68022B3FD1444A8F
:10496000434B1B889BB243F080039BB213803F4AAA
:104970003E4B1B889BB243F080039BB213803C4AA2
:104980003B4B1B889BB243F001039BB21380374A19
:10499000364B1B889BB243F001039BB21380344A11
:1049A000334BB3F844309BB26FEA43436FEA53434F
:1049B0009BB2A2F844302D4A2C4BB3F844309BB242
:1049C0006FEA43436FEA53439BB2A2F84430284A4C
:1049D0007B685363F968294800F074FE40E0FB6887
:1049E000032B3DD1224A224B1B889BB243F080030C
:1049F0009BB213801D4A1D4B1B889BB243F0800362
:104A00009BB213801A4A1A4B1B889BB243F00103D6
:104A10009BB21380154A154B1B889BB243F00103D0
:104A20009BB21380124A124BB3F844309BB26FEA28
:104A300043436FEA53439BB2A2F844300B4A0B4BFB
:104A4000B3F844309BB26FEA43436FEA53439BB2DF
:104A5000A2F84430054A7B685363054A7B68536378
:104A600000BF3037BD4680BD000800400000014057
:104A700000040140B4E90008D4E9000810EA000885
:104A800080B58CB000AFF860B9607A609C4ABB68B2
:104A900013609C48FDF78CFB9B48FDF789FB9B4806
:104AA000FDF786FB00F040F94DF690037B61002393
:104AB0003B8200233B8300237B820023BB7607F1EC
:104AC000100319468F48FDF753FC07F110031946F0
:104AD0008D48FDF74DFC8B48FDF7C0FE8948FDF77A
:104AE000B3FC8848FFF786FE6023BB8300237B620C
:104AF0000123FB8304233B8400233B8500237B8528
:104B00004FF48073BB854FF40073FB8507F11C03E2
:104B100019467C48FDF7C4FC07F11C031946794887
:104B2000FDF738FD07F11C0319467648FDF7BAFD7D
:104B300007F11C0319467448FDF7B2FC07F11C038A
:104B400019467148FDF726FDFFF77CFAFB68002B3C
:104B50000ED100216B48FDF7B5FE00216A48FDF734
:104B6000B1FE6B4800F0AEFD6A4800F0ABFDBFE05F
:104B7000FB68002B40F3B980FB68032B00F3B58082
:104B8000FB68012B24D15F4A5E4B1B889BB243F02C
:104B900080039BB213805B4A5A4B1B889BB243F045
:104BA00001039BB21380574A564BB3F844309BB273
:104BB0006FEA43436FEA53439BB2A2F84430514B30
:104BC0004DF68D025A63F968534800F07BFD8FE083
:104BD000FB68022B40D14C4A4B4B1B889BB243F0E5
:104BE00080039BB21380474A464B1B889BB243F01D
:104BF00080039BB21380444A434B1B889BB243F013
:104C000001039BB213803F4A3E4B1B889BB243F08B
:104C100001039BB213803C4A3B4BB3F844309BB238
:104C20006FEA43436FEA53439BB2A2F84430354ADC
:104C3000344BB3F844309BB26FEA43436FEA5343BB
:104C40009BB2A2F84430304B4DF68D025A63F9689E
:104C5000314800F037FD4BE0FB68032B40D12A4A76
:104C6000294B1B889BB243F080039BB21380254ADB
:104C7000244B1B889BB243F080039BB21380224AD3
:104C8000214B1B889BB243F001039BB213801D4A4A
:104C90001C4B1B889BB243F001039BB213801A4A42
:104CA000194BB3F844309BB26FEA43436FEA534366
:104CB0009BB2A2F84430134A124BB3F844309BB273
:104CC0006FEA43436FEA53439BB2A2F844300D4B63
:104CD0004DF68D025A630C4B4DF68D025A6307E078
:104CE000F9680E4800F0EEFC02E00D4800F0EAFC26
:104CF0000C4800F0E7FC00BF3037BD4680BD00BF68
:104D00003CDF012000000140000401400008004099
:104D1000B4E90008D4E9000810EA00084CEA0008E9
:104D20006CEA000834EA000880B58AB000AF0121BF
:104D30001020FDF79DF901210120FDF7D9F901218E
:104D40000120FDF795F901210420FDF791F90121DA
:104D50000220FDF7CDF94FF480633B62022387F810
:104D60002430022387F82530002387F826300223D9
:104D700087F8273007F1200319469948FCF7AEFF62
:104D800001220A219648FDF781F84FF400633B6247
:104D9000022387F82430022387F82530002387F880
:104DA0002630012387F8273007F1200319468C4865
:104DB000FCF794FF01220B218948FDF767F84FF4B7
:104DC00080733B62022387F82430022387F8253062
:104DD000002387F82630022387F8273007F12003C5
:104DE00019467F48FCF77AFF012208217C48FDF72D
:104DF0004DF84FF400733B62022387F824300223FE
:104E000087F82530002387F82630012387F82730DC
:104E1000012209217248FDF739F84FF400533B6233
:104E2000022387F82430022387F82530002387F8EF
:104E30002630012387F8273001220D216848FDF72D
:104E400025F84FF480533B62022387F82430022375
:104E500087F82530002387F82630022387F827308B
:104E600001220C215E48FDF711F840233B6202232A
:104E700087F82430022387F82530002387F826306E
:104E8000012387F82730032206215648FCF7FEFF4E
:104E900080233B62022387F82430022387F82530E1
:104EA000002387F82630022387F8273003220721C2
:104EB0004D48FCF7EBFF01233B62022387F82430C7
:104EC000022387F82530002387F82630012387F84E
:104ED00027304648FDF76CF94548FDF769F9454B21
:104EE0001B68BB610023BB820023BB830023FB82C2
:104EF0000023BB7707F1140319463C48FDF738FA45
:104F000007F1140319463A48FDF732FA60233B8053
:104F100001237B800423BB800023BB600023BB8173
:104F20000023FB814FF480733B824FF400737B823C
:104F30003B4619462D48FDF7B3FA0023BB603B46BC
:104F400019462A48FDF726FB0023BB603B4619465D
:104F50002648FDF7A7FB0023BB603B4619462448C3
:104F6000FDF79EFA3B4619462148FDF713FB204A00
:104F70001F4B1B889BB243F080039BB213801B4ADC
:104F80001A4B1B889BB243F080039BB21380184AD4
:104F9000174B1B889BB243F001039BB21380134A4B
:104FA000124B1B889BB243F001039BB21380104A43
:104FB0000F4BB3F844309BB2C3F30E039BB2A2F87D
:104FC00044300A4A094BB3F844309BB2C3F30E0392
:104FD0009BB2A2F8443000BF2837BD4680BD00BF59
:104FE00000100240000802400000024000000140A2
:104FF000000401401C00002080B58EB000AF0121EC
:105000001020FDF735F801210120FDF771F801218D
:105010000120FDF72DF801210420FDF729F80121D9
:105020000220FDF765F84FF440733B63022387F8D5
:105030003430022387F83530002387F836300023D8
:1050400087F8373007F1300319469848FCF746FED9
:10505000012208219548FCF719FF012209219348F4
:10506000FCF714FF4FF440633B63022387F83430AE
:10507000022387F83530002387F83630002387F87D
:10508000373007F1300319468848FCF727FE012224
:105090000A218648FCF7FAFE01220B218348FCF71F
:1050A000F5FE4FF440533B63022387F8343002236C
:1050B00087F83530002387F83630002387F83730FB
:1050C00007F1300319467948FCF708FE01220C214C
:1050D0007648FCF7DBFE01220D217448FCF7D6FE72
:1050E00040233B63022387F83430022387F83530AE
:1050F000002387F83630002387F8373007F1300374
:1051000019466B48FCF7EAFD80233B63022387F8CE
:105110003430022387F83530002387F836300023F7
:1051200087F8373007F1300319466248FCF7D6FD9F
:10513000032206215E48FCF7A9FE032207215D48F1
:10514000FCF7A4FE5C48FDF733F85C48FDF730F847
:105150005B4B1B68BB620023BB840023BB85002321
:10516000FB84002387F82E3007F1240319465248A8
:10517000FDF7FEF807F1240319465048FDF7F8F84B
:1051800060233B8201237B820423BB820023BB611B
:105190000023BB830023FB834FF480733B844FF4D5
:1051A00000737B8407F1100319464348FDF778F933
:1051B0000023BB6107F1100319463F48FDF7EAF9E8
:1051C0000023BB6107F1100319463B48FDF76AFA5B
:1051D0000023BB6107F1100319463848FDF760F959
:1051E0004FF400633B804FF480637B800023BB80DF
:1051F000344B1B689BB2FB804FF480533B814FF4D0
:1052000000537B810023BB813B4619462A48FDF7AA
:1052100031FB3B4619462948FDF72CFB082126485F
:10522000FDF7C6FA08212448FDF7DEFA08212248D6
:10523000FDF7F8FA08212148FDF7BAFA1F4A1F4B7B
:105240001B889BB243F080039BB213801A4A1A4B0F
:105250001B889BB243F080039BB21380174A174B05
:105260001B889BB243F001039BB21380124A124B7E
:105270001B889BB243F001039BB213800F4A0F4B74
:10528000B3F844309BB2C3F30E039BB2A2F8443090
:10529000094A094BB3F844309BB2C3F30E039BB2E7
:1052A000A2F8443000BF3837BD4680BD0010024030
:1052B00000080240000002400000014000040140DC
:1052C0001C0000202000002090B587B000AFF860DF
:1052D000B9607A6000237B610AE0BC68631CBB6034
:1052E000AFF300800346DBB223707B6901337B613F
:1052F0007A697B689A42F0DB7B6818461C37BD46AA
:1053000090BD000080B586B000AFF860B9607A60EB
:1053100000237B6113E000BF40210D48FDF7B8FC7E
:105320000346002BF8D0BB685A1CBA601B789BB2AE
:1053300019460748FDF742FC7B6901337B617A69B6
:105340007B689A42E7DB7B6918461837BD4680BD0B
:105350000010014080B584B000AF7860114B1B682D
:10536000002B02D10F4B104A1A600E4B1B68FB60DA
:105370000C4B1A687B6813446A46934207D900F0C5
:1053800025F902460C2313604FF0FF3306E0054B6E
:105390001A687B681344034A1360FB681846103789
:1053A000BD4680BD48DF012028E0012080B483B0E5
:1053B00000AF78604FF0FF3318460C37BD465DF8FC
:1053C000047B704780B483B000AF786039603B687D
:1053D0004FF400525A60002318460C37BD465DF862
:1053E000047B704780B483B000AF78600123184617
:1053F0000C37BD465DF8047B704780B485B000AFC4
:10540000F860B9607A60002318461437BD465DF82D
:10541000047B704780B500AF164A164BD3F888302E
:1054200043F47003C2F88830134A134B1B6843F0EF
:1054300001031360104B00229A600F4A0E4B1B6849
:1054400023F0847323F4803313600B4B0B4A5A60B0
:10545000094A094B1B6823F480231360064B002282
:10546000DA6000F00DF8034B4FF000629A6000BF65
:1054700080BD00BF00ED00E0003802401030002485
:1054800080B483B000AF00237B6000233B60364ACA
:10549000354B1B6843F480331360334B1B6803F4B4
:1054A00000333B607B6801337B603B68002B03D19A
:1054B0007B68B3F5A04FF0D12B4B1B6803F400338E
:1054C000002B02D001233B6001E000233B603B68DE
:1054D000012B42D1244A244B1B6C43F080531364AC
:1054E000224A224B1B6843F4404313601E4A1E4B62
:1054F0009B6893601C4A1C4B9B6843F40043936079
:10550000194A194B9B6843F4A0539360164B184AF1
:105510005A60154A144B1B6843F08073136000BF38
:10552000114B1B6803F00073002BF9D0114B40F2B4
:1055300005721A600C4A0C4B9B6823F003039360BE
:10554000094A094B9B6843F00203936000BF064B76
:105550009B6803F00C03082BF9D100BF0C37BD4644
:105560005DF8047B704700BF0038024000700040C7
:1055700019544007003C02400D4885460D480E492D
:105580000E4A002302E0D458C4500433C4188C429D
:10559000F9D30B4A0B4C002301E013600432A24202
:1055A000FBD3FFF737FF00F017F8FEF73FFDFEE7EC
:1055B0000000022000000020D0090020C4EE0008F6
:1055C000D009002024E00120FEE70000014B18680C
:1055D000704700BF2400002070B50F4E0F4D761BA2
:1055E000B61018BF002405D0013455F8043B984785
:1055F000A642F9D10A4E0B4D761B09F0A9F8B61058
:1056000018BF002406D0013455F8043B9847A64241
:10561000F9D170BD70BD00BFB8EE0008B8EE00084B
:10562000C0EE0008B8EE000870B4860746D0541EDD
:10563000002A41D0CAB2034602E014F1FF343BD342
:1056400003F8012B9D07F8D1032C2ED9CDB245EAE2
:1056500005250F2C45EA054519D903F11002264608
:10566000103E0F2E42F8105C42F80C5C42F8085CC9
:1056700042F8045C02F11002F2D8A4F1100222F008
:105680000F0204F00F041032032C13440DD91E46F0
:105690002246043A032A46F8045BFAD8221F22F075
:1056A00003020432134404F003042CB1C9B21C44B5
:1056B00003F8011B9C42FBD170BC704714460346A3
:1056C000C2E700BF0FB400B5074983B004AB086858
:1056D00053F8042B8168019302F0A2F803B05DF83F
:1056E00004EB04B0704700BF24000020F0B505466D
:1056F00089B008460C46FBF7E3FBAB6B214F0494E3
:105700000126441C04A9022203940590AC68069764
:1057100007960191029253B3636E13F0010FB4F92F
:105720000C309AB201D1900525D5910406D4626E51
:1057300043F4005322F40052A3816266284601AA72
:10574000214604F04BFE636E00280CBF0A254FF083
:10575000FF35DA0702D4A3899B0502D5284609B094
:10576000F0BDA06D05F0D2FB284609B0F0BD28467B
:1057700004F0ACFCD0E7A06D05F0C6FBB4F90C302A
:105780009AB2D2E77CEA0008024B01461868FFF79C
:10579000ADBF00BF2400002000290CBF0222002260
:1057A0004FF4806300F000B82DE9F043614C2568A8
:1057B00083B004460F4690461E4615B1AB6B002BD6
:1057C00064D0B8F1020F06D0B8F1010F00F29F804B
:1057D000002EC0F29C80636ED80734D5214628463F
:1057E00004F01CFC216B41B104F14003994202D04A
:1057F000284604F00DFD00232363B4F90C30002289
:10580000A26162601A063AD423F44A6323F00303C8
:10581000B8F1020FA3811DD001AB6A46214628468C
:1058200005F08CFBA3891843A081002E32D1009E85
:10583000304605F0FBFB074600286BD0A38943F0F8
:105840008003A38128E0A3899905C7D4A06D05F042
:105850005BFBC3E70025616E002604F1430243F0C1
:1058600002030120A660CE07A3812260226160614D
:1058700001D498053ED5284603B0BDE8F0832169E0
:10588000284604F0C5FCB4F90C30BDE7284604F006
:105890001DFC96E7002FCBD0AB6B002B33D0009BC9
:1058A000B4F90C2027609E421CBF42F40062A28122
:1058B000B8F1010F04BF42F00102A28192B212F0CE
:1058C0000803276166610ED0D1071AD5656E76424E
:1058D000002315F00105A661A36009D00025284624
:1058E00003B0BDE8F083A360656E15F00105F5D146
:1058F0009305C0D4A06D05F009FB284603B0BDE8B0
:10590000F083A660F0E7284604F0E0FBC7E74FF01D
:10591000FF35B0E7DDF80090B14504D0484605F00A
:1059200085FB074620B9B4F90C304FF0FF3592E7FC
:105930004E4683E7240000200EB4F0B59CB021ACA5
:105940004FF4017254F8046BADF8142002900690E5
:10595000FBF7B6FA0C4B0194054632460B4F18681C
:10596000039523464FF6FF76002402A907950A9770
:105970000E941394ADF8166001F042F81CB0BDE827
:10598000F04003B0704700BF24000020B559000864
:1059900010B50C46B1F90E1006F00EFB002803DB23
:1059A000236D0344236510BDA38923F48053A38191
:1059B00010BD00BF002070472DE9F0411646B1F937
:1059C0000C201F46D3050C46054607D500220223AE
:1059D000B1F90E1005F09CFAB4F90C20B4F90E10D0
:1059E00022F48052A2813B4632462846BDE8F0416F
:1059F00003F01EBA10B50C46B1F90E1005F088FA86
:105A0000A389421C0EBF23F4805343F480532065C6
:105A1000A38110BDB1F90E1003F094BA40EA01035E
:105A200013F0030F70B4034624D0A2B10C781C709D
:105A3000013A013301313CB16AB111F8014B03F86D
:105A4000014B013A002CF7D12AB11A44002103F886
:105A5000011B9A42FBD170BC70470E4651F8045BA3
:105A6000A5F1013424EA050414F0803F05D143F880
:105A7000045B043A032AF0D8D7E73146D6E700BFE3
:105A800070B504460D4645EC104B164606F026F957
:105A900051EC100B7EB1C5F30A53C3F16B03002B1D
:105AA00009DD1B0503F17F55002405F5401522464D
:105AB0002B46FAF773FD70BD2DE9F04FA3B01C46DD
:105AC0000990002320460E4605921E9305F008FA21
:105AD0000023002283460068CDE90623FBF7F0F996
:105AE0001D96824633461A4613F8017B2D2F00F28D
